{
  "_format": "hh-sol-artifact-1",
  "contractName": "ERC721Factory",
  "sourceName": "contracts/ERC721Factory.sol",
  "abi": [
    {
      "inputs": [
        {
          "internalType": "address",
          "name": "",
          "type": "address"
        }
      ],
      "name": "contractAddresses",
      "outputs": [
        {
          "internalType": "address",
          "name": "",
          "type": "address"
        }
      ],
      "stateMutability": "view",
      "type": "function"
    },
    {
      "inputs": [],
      "name": "contractCount",
      "outputs": [
        {
          "internalType": "uint256",
          "name": "",
          "type": "uint256"
        }
      ],
      "stateMutability": "view",
      "type": "function"
    },
    {
      "inputs": [
        {
          "internalType": "string",
          "name": "_name",
          "type": "string"
        },
        {
          "internalType": "string",
          "name": "_symbol",
          "type": "string"
        },
        {
          "internalType": "uint256",
          "name": "_tokenPrice",
          "type": "uint256"
        },
        {
          "internalType": "uint256",
          "name": "_royaltyPercent",
          "type": "uint256"
        }
      ],
      "name": "createContract",
      "outputs": [],
      "stateMutability": "nonpayable",
      "type": "function"
    },
    {
      "inputs": [],
      "name": "getContractCount",
      "outputs": [
        {
          "internalType": "uint256",
          "name": "",
          "type": "uint256"
        }
      ],
      "stateMutability": "view",
      "type": "function"
    },
    {
      "inputs": [],
      "name": "getMyContract",
      "outputs": [
        {
          "internalType": "address",
          "name": "",
          "type": "address"
        }
      ],
      "stateMutability": "view",
      "type": "function"
    }
  ],
  "bytecode": "0x608060405234801561001057600080fd5b50613801806100206000396000f3fe608060405234801561001057600080fd5b50600436106100575760003560e01c8063104351511461005c5780634661ac95146100715780635c41a1c4146100b75780638736381a146100bf5780639399869d146100d6575b600080fd5b61006f61006a3660046102b1565b6100de565b005b61009a61007f366004610325565b6000602081905290815260409020546001600160a01b031681565b6040516001600160a01b0390911681526020015b60405180910390f35b61009a6101c2565b6100c860015481565b6040519081526020016100ae565b6001546100c8565b60006040516100ec90610201565b604051809103906000f080158015610108573d6000803e3d6000fd5b506040516370632c2b60e01b81529091506001600160a01b038216906370632c2b9061014d9088908890601490612710908a90606490607d9033908d906004016103a2565b600060405180830381600087803b15801561016757600080fd5b505af115801561017b573d6000803e3d6000fd5b505033600090815260208190526040812080546001600160a01b0319166001600160a01b03861617905560018054935091506101b68361040c565b91905055505050505050565b336000908152602081905260408120546001600160a01b03166101e457600080fd5b50336000908152602081905260409020546001600160a01b031690565b6133968061043683390190565b634e487b7160e01b600052604160045260246000fd5b600082601f83011261023557600080fd5b813567ffffffffffffffff808211156102505761025061020e565b604051601f8301601f19908116603f011681019082821181831017156102785761027861020e565b8160405283815286602085880101111561029157600080fd5b836020870160208301376000602085830101528094505050505092915050565b600080600080608085870312156102c757600080fd5b843567ffffffffffffffff808211156102df57600080fd5b6102eb88838901610224565b9550602087013591508082111561030157600080fd5b5061030e87828801610224565b949794965050505060408301359260600135919050565b60006020828403121561033757600080fd5b81356001600160a01b038116811461034e57600080fd5b9392505050565b6000815180845260005b8181101561037b5760208185018101518683018201520161035f565b8181111561038d576000602083870101525b50601f01601f19169290920160200192915050565b60006101208083526103b68184018d610355565b905082810360208401526103ca818c610355565b604084019a909a5250506060810196909652608086019490945260a085019290925260c08401526001600160a01b031660e08301526101009091015292915050565b600060001982141561042e57634e487b7160e01b600052601160045260246000fd5b506001019056fe608060405234801561001057600080fd5b50613376806100206000396000f3fe60806040526004361061027d5760003560e01c8063885bd3581161014f5780639fbc8713116100c1578063d9b137b21161007a578063d9b137b214610744578063e985e9c514610764578063eb8d2444146107ad578063efbd3a8b146107c8578063f153bbc0146107e8578063f2fde38b146107ff57600080fd5b80639fbc87131461068e578063a22cb465146106af578063b09904b5146106cf578063b88d4fde146106ef578063bf4702fc1461070f578063c87b56dd1461072457600080fd5b806392bd6cb91161011357806392bd6cb9146105ff578063938af8561461061657806395d89b411461063657806398b1fa2d1461064b5780639c3e72bd146106625780639f67756d1461067757600080fd5b8063885bd358146105775780638da5cb5b14610597578063918f8674146105b557806392642744146105cc57806392754a26146105df57600080fd5b806334918dfd116101f35780636352211e116101ac5780636352211e146104c05780636c0360eb146104e057806370632c2b146104f557806370a0823114610515578063715018a6146105355780638462151c1461054a57600080fd5b806334918dfd1461041f57806342842e0e146104345780634f6660c6146104545780634f6ccce71461046957806355f804b314610489578063609cd0f4146104a957600080fd5b806314b691301161024557806314b691301461035357806318160ddd146103805780631e971bdb1461039f57806323b872dd146103bf5780632bc9d930146103df5780632f745c59146103ff57600080fd5b806301ffc9a71461028257806306fdde03146102b7578063081812fc146102d9578063095ea7b3146103115780631096952314610333575b600080fd5b34801561028e57600080fd5b506102a261029d366004612a74565b61081f565b60405190151581526020015b60405180910390f35b3480156102c357600080fd5b506102cc610830565b6040516102ae9190612ae9565b3480156102e557600080fd5b506102f96102f4366004612afc565b6108c2565b6040516001600160a01b0390911681526020016102ae565b34801561031d57600080fd5b5061033161032c366004612b31565b61095c565b005b34801561033f57600080fd5b5061033161034e366004612c07565b610a72565b34801561035f57600080fd5b5061037361036e366004612c3c565b610ab4565b6040516102ae9190612c57565b34801561038c57600080fd5b506099545b6040519081526020016102ae565b3480156103ab57600080fd5b506102cc6103ba366004612afc565b610c33565b3480156103cb57600080fd5b506103316103da366004612cb9565b610cce565b3480156103eb57600080fd5b506103316103fa366004612b31565b610cff565b34801561040b57600080fd5b5061039161041a366004612b31565b610ddc565b34801561042b57600080fd5b50610331610e72565b34801561044057600080fd5b5061033161044f366004612cb9565b610eb1565b34801561046057600080fd5b506102cc610ecc565b34801561047557600080fd5b50610391610484366004612afc565b610eda565b34801561049557600080fd5b506103316104a4366004612c07565b610f6d565b3480156104b557600080fd5b506103916101385481565b3480156104cc57600080fd5b506102f96104db366004612afc565b610fab565b3480156104ec57600080fd5b506102cc611022565b34801561050157600080fd5b50610331610510366004612cf5565b611030565b34801561052157600080fd5b50610391610530366004612c3c565b6111e2565b34801561054157600080fd5b50610331611269565b34801561055657600080fd5b5061056a610565366004612c3c565b61129f565b6040516102ae9190612da4565b34801561058357600080fd5b506102cc610592366004612afc565b611354565b3480156105a357600080fd5b5060c9546001600160a01b03166102f9565b3480156105c157600080fd5b506103916101355481565b6103316105da366004612afc565b61144c565b3480156105eb57600080fd5b506103316105fa366004612c3c565b611727565b34801561060b57600080fd5b506103916101305481565b34801561062257600080fd5b50610331610631366004612afc565b6117bc565b34801561064257600080fd5b506102cc611834565b34801561065757600080fd5b506103916101325481565b34801561066e57600080fd5b506102cc611843565b34801561068357600080fd5b506103916101345481565b34801561069a57600080fd5b50610133546102f9906001600160a01b031681565b3480156106bb57600080fd5b506103316106ca366004612de8565b611851565b3480156106db57600080fd5b506103316106ea366004612c07565b61185c565b3480156106fb57600080fd5b5061033161070a366004612e24565b6118e7565b34801561071b57600080fd5b50610331611919565b34801561073057600080fd5b506102cc61073f366004612afc565b61198d565b34801561075057600080fd5b506102cc61075f366004612afc565b611a68565b34801561077057600080fd5b506102a261077f366004612ea0565b6001600160a01b039182166000908152606a6020908152604080832093909416825291909152205460ff1690565b3480156107b957600080fd5b50610136546102a29060ff1681565b3480156107d457600080fd5b506103316107e3366004612ed3565b611acf565b3480156107f457600080fd5b506103916101315481565b34801561080b57600080fd5b5061033161081a366004612c3c565b611cad565b600061082a82611d48565b92915050565b60606065805461083f90612f1a565b80601f016020809104026020016040519081016040528092919081815260200182805461086b90612f1a565b80156108b85780601f1061088d576101008083540402835291602001916108b8565b820191906000526020600020905b81548152906001019060200180831161089b57829003601f168201915b5050505050905090565b6000818152606760205260408120546001600160a01b03166109405760405162461bcd60e51b815260206004820152602c60248201527f4552433732313a20617070726f76656420717565727920666f72206e6f6e657860448201526b34b9ba32b73a103a37b5b2b760a11b60648201526084015b60405180910390fd5b506000908152606960205260409020546001600160a01b031690565b600061096782610fab565b9050806001600160a01b0316836001600160a01b031614156109d55760405162461bcd60e51b815260206004820152602160248201527f4552433732313a20617070726f76616c20746f2063757272656e74206f776e656044820152603960f91b6064820152608401610937565b336001600160a01b03821614806109f157506109f1813361077f565b610a635760405162461bcd60e51b815260206004820152603860248201527f4552433732313a20617070726f76652063616c6c6572206973206e6f74206f7760448201527f6e6572206e6f7220617070726f76656420666f7220616c6c00000000000000006064820152608401610937565b610a6d8383611d6d565b505050565b60c9546001600160a01b03163314610a9c5760405162461bcd60e51b815260040161093790612f4f565b8051610ab09061012d9060208401906129c5565b5050565b60606000610ac1836111e2565b905080610afb576040805160008082526020820190925290610af3565b6060815260200190600190039081610ade5790505b509392505050565b60008167ffffffffffffffff811115610b1657610b16612b5b565b604051908082528060200260200182016040528015610b4957816020015b6060815260200190600190039081610b345790505b50905060005b82811015610af3576101376000610b668784610ddc565b81526020019081526020016000208054610b7f90612f1a565b80601f0160208091040260200160405190810160405280929190818152602001828054610bab90612f1a565b8015610bf85780601f10610bcd57610100808354040283529160200191610bf8565b820191906000526020600020905b815481529060010190602001808311610bdb57829003601f168201915b5050505050828281518110610c0f57610c0f612f84565b60200260200101819052508080610c2590612fb0565b915050610b4f565b50919050565b6101376020526000908152604090208054610c4d90612f1a565b80601f0160208091040260200160405190810160405280929190818152602001828054610c7990612f1a565b8015610cc65780601f10610c9b57610100808354040283529160200191610cc6565b820191906000526020600020905b815481529060010190602001808311610ca957829003601f168201915b505050505081565b610cd83382611ddb565b610cf45760405162461bcd60e51b815260040161093790612fcb565b610a6d838383611ed2565b60c9546001600160a01b03163314610d295760405162461bcd60e51b815260040161093790612f4f565b600081118015610d3c5750610138548111155b610d885760405162461bcd60e51b815260206004820181905260248201527f4e6f7420656e6f7567682072657365727665206c65667420666f72207465616d6044820152606401610937565b61013854610d96908261207d565b610138556000610da560995490565b905060015b828111610dd657610dc484610dbf838561301c565b612089565b80610dce81612fb0565b915050610daa565b50505050565b6000610de7836111e2565b8210610e495760405162461bcd60e51b815260206004820152602b60248201527f455243373231456e756d657261626c653a206f776e657220696e646578206f7560448201526a74206f6620626f756e647360a81b6064820152608401610937565b506001600160a01b03919091166000908152609760209081526040808320938352929052205490565b60c9546001600160a01b03163314610e9c5760405162461bcd60e51b815260040161093790612f4f565b610136805460ff19811660ff90911615179055565b610a6d838383604051806020016040528060008152506118e7565b61012d8054610c4d90612f1a565b6000610ee560995490565b8210610f485760405162461bcd60e51b815260206004820152602c60248201527f455243373231456e756d657261626c653a20676c6f62616c20696e646578206f60448201526b7574206f6620626f756e647360a01b6064820152608401610937565b60998281548110610f5b57610f5b612f84565b90600052602060002001549050919050565b60c9546001600160a01b03163314610f975760405162461bcd60e51b815260040161093790612f4f565b8051610ab0906101399060208401906129c5565b6000818152606760205260408120546001600160a01b03168061082a5760405162461bcd60e51b815260206004820152602960248201527f4552433732313a206f776e657220717565727920666f72206e6f6e657869737460448201526832b73a103a37b5b2b760b91b6064820152608401610937565b6101398054610c4d90612f1a565b600054610100900460ff1661104b5760005460ff161561104f565b303b155b6110b25760405162461bcd60e51b815260206004820152602e60248201527f496e697469616c697a61626c653a20636f6e747261637420697320616c72656160448201526d191e481a5b9a5d1a585b1a5e995960921b6064820152608401610937565b600054610100900460ff161580156110d4576000805461ffff19166101011790555b606482111561110f5760405162461bcd60e51b8152602060048201526007602482015266125b9d985b1a5960ca1b6044820152606401610937565b6111198a8a6120a3565b6111216120e4565b61112961211b565b6040805160208101918290526000908190526111489161012d916129c5565b506040805160208101918290526000908190526111689161012e916129c5565b5061012f805460ff199081169091556101368054909116600117905561013088905561013187905561013286905561013585905561013884905561013380546001600160a01b0319166001600160a01b03851617905561013482905580156111d6576000805461ff00191690555b50505050505050505050565b60006001600160a01b03821661124d5760405162461bcd60e51b815260206004820152602a60248201527f4552433732313a2062616c616e636520717565727920666f7220746865207a65604482015269726f206164647265737360b01b6064820152608401610937565b506001600160a01b031660009081526068602052604090205490565b60c9546001600160a01b031633146112935760405162461bcd60e51b815260040161093790612f4f565b61129d600061214a565b565b606060006112ac836111e2565b9050806112c9576040805160008082526020820190925290610af3565b60008167ffffffffffffffff8111156112e4576112e4612b5b565b60405190808252806020026020018201604052801561130d578160200160208202803683370190505b50905060005b82811015610af3576113258582610ddc565b82828151811061133757611337612f84565b60209081029190910101528061134c81612fb0565b915050611313565b606061135f60995490565b82106113ad5760405162461bcd60e51b815260206004820152601f60248201527f43686f6f73652061206d696e7464726f707a2077697468696e2072616e6765006044820152606401610937565b60008281526101376020526040902080546113c790612f1a565b80601f01602080910402602001604051908101604052809291908181526020018280546113f390612f1a565b80156114405780601f1061141557610100808354040283529160200191611440565b820191906000526020600020905b81548152906001019060200180831161142357829003601f168201915b50505050509050919050565b600260fb54141561149f5760405162461bcd60e51b815260206004820152601f60248201527f5265656e7472616e637947756172643a207265656e7472616e742063616c6c006044820152606401610937565b600260fb556101365460ff166114f75760405162461bcd60e51b815260206004820152601f60248201527f53616c65206d7573742062652061637469766520746f206d696e74206e6674006044820152606401610937565b60008111801561150a5750610130548111155b6115605760405162461bcd60e51b815260206004820152602160248201527f43616e206f6e6c79206d696e7420323020746f6b656e7320617420612074696d6044820152606560f81b6064820152608401610937565b610131546115778261157160995490565b9061219c565b11156115c55760405162461bcd60e51b815260206004820152601e60248201527f457863656564206d617820737570706c79206f66204d696e7464726f707a00006044820152606401610937565b610132546000906115d690836121a8565b905060006115fd610135546115f761013454856121a890919063ffffffff16565b906121b4565b9050611609828261219c565b3410156116495760405162461bcd60e51b815260206004820152600e60248201526d125b9d985b1a5908185b5bdd5b9d60921b6044820152606401610937565b600061165f82611659348661207d565b9061207d565b604051909150339082156108fc029083906000818181858888f1935050505015801561168f573d6000803e3d6000fd5b50610133546001600160a01b03166108fc6116b060646115f786605a6121a8565b6116ba908661301c565b6040518115909202916000818181858888f193505050501580156116e2573d6000803e3d6000fd5b5060006116ee60995490565b905060015b85811161171a5761170833610dbf838561301c565b8061171281612fb0565b9150506116f3565b5050600160fb5550505050565b60c9546001600160a01b031633146117515760405162461bcd60e51b815260040161093790612f4f565b6001600160a01b0381166117995760405162461bcd60e51b815260206004820152600f60248201526e496e76616c6964206164647265737360881b6044820152606401610937565b61013380546001600160a01b0319166001600160a01b0392909216919091179055565b60c9546001600160a01b031633146117e65760405162461bcd60e51b815260040161093790612f4f565b606481101580156117f8575061271081105b61182e5760405162461bcd60e51b8152602060048201526007602482015266125b9d985b1a5960ca1b6044820152606401610937565b61013455565b60606066805461083f90612f1a565b61012e8054610c4d90612f1a565b610ab03383836121c0565b60c9546001600160a01b031633146118865760405162461bcd60e51b815260040161093790612f4f565b61012f5460ff16156118d35760405162461bcd60e51b8152602060048201526016602482015275131a58d95b9cd948185b1c9958591e481b1bd8dad95960521b6044820152606401610937565b8051610ab09061012e9060208401906129c5565b6118f13383611ddb565b61190d5760405162461bcd60e51b815260040161093790612fcb565b610dd68484848461228f565b60c9546001600160a01b031633146119435760405162461bcd60e51b815260040161093790612f4f565b61012f805460ff191660011790556040517f62f90a81345309c0a5b98ec6aadd492d74210ffb25155d28619e8de313c80c5c906119839061012e90613034565b60405180910390a1565b6000818152606760205260409020546060906001600160a01b0316611a0c5760405162461bcd60e51b815260206004820152602f60248201527f4552433732314d657461646174613a2055524920717565727920666f72206e6f60448201526e3732bc34b9ba32b73a103a37b5b2b760891b6064820152608401610937565b6000611a166122c2565b90506000815111611a365760405180602001604052806000815250611a61565b80611a40846122d2565b604051602001611a519291906130b9565b6040516020818303038152906040525b9392505050565b6060611a7360995490565b8210611ac15760405162461bcd60e51b815260206004820152601f60248201527f43484f4f53452041204d494e5444524f505a2057495448494e2052414e4745006044820152606401610937565b61012e80546113c790612f1a565b33611ad983610fab565b6001600160a01b031614611b445760405162461bcd60e51b815260206004820152602c60248201527f4865792c20796f75722077616c6c657420646f65736e2774206f776e2074686960448201526b73206d696e7464726f707a2160a01b6064820152608401610937565b60008281526101376020526040908190209051600291611b63916130e8565b602060405180830381855afa158015611b80573d6000803e3d6000fd5b5050506040513d601f19601f82011682018060405250810190611ba3919061315a565b600282604051611bb39190613173565b602060405180830381855afa158015611bd0573d6000803e3d6000fd5b5050506040513d601f19601f82011682018060405250810190611bf3919061315a565b1415611c4d5760405162461bcd60e51b815260206004820152602360248201527f4e6577206e616d652069732073616d65206173207468652063757272656e74206044820152626f6e6560e81b6064820152608401610937565b6000828152610137602090815260409091208251611c6d928401906129c5565b507f5e5f2e743cf97869ea7c8edbff51fc2ab09e3c1446e59561adfa638516e7a8f6338383604051611ca19392919061318f565b60405180910390a15050565b60c9546001600160a01b03163314611cd75760405162461bcd60e51b815260040161093790612f4f565b6001600160a01b038116611d3c5760405162461bcd60e51b815260206004820152602660248201527f4f776e61626c653a206e6577206f776e657220697320746865207a65726f206160448201526564647265737360d01b6064820152608401610937565b611d458161214a565b50565b60006001600160e01b0319821663780e9d6360e01b148061082a575061082a826123d0565b600081815260696020526040902080546001600160a01b0319166001600160a01b0384169081179091558190611da282610fab565b6001600160a01b03167f8c5be1e5ebec7d5bd14f71427d1e84f3dd0314c0f7b2291e5b200ac8c7c3b92560405160405180910390a45050565b6000818152606760205260408120546001600160a01b0316611e545760405162461bcd60e51b815260206004820152602c60248201527f4552433732313a206f70657261746f7220717565727920666f72206e6f6e657860448201526b34b9ba32b73a103a37b5b2b760a11b6064820152608401610937565b6000611e5f83610fab565b9050806001600160a01b0316846001600160a01b03161480611e9a5750836001600160a01b0316611e8f846108c2565b6001600160a01b0316145b80611eca57506001600160a01b038082166000908152606a602090815260408083209388168352929052205460ff165b949350505050565b826001600160a01b0316611ee582610fab565b6001600160a01b031614611f4d5760405162461bcd60e51b815260206004820152602960248201527f4552433732313a207472616e73666572206f6620746f6b656e2074686174206960448201526839903737ba1037bbb760b91b6064820152608401610937565b6001600160a01b038216611faf5760405162461bcd60e51b8152602060048201526024808201527f4552433732313a207472616e7366657220746f20746865207a65726f206164646044820152637265737360e01b6064820152608401610937565b611fba838383612420565b611fc5600082611d6d565b6001600160a01b0383166000908152606860205260408120805460019290611fee9084906131bf565b90915550506001600160a01b038216600090815260686020526040812080546001929061201c90849061301c565b909155505060008181526067602052604080822080546001600160a01b0319166001600160a01b0386811691821790925591518493918716917fddf252ad1be2c89b69c2b068fc378daa952ba7f163c4a11628f55a4df523b3ef91a4505050565b6000611a6182846131bf565b610ab082826040518060200160405280600081525061242b565b600054610100900460ff166120ca5760405162461bcd60e51b8152600401610937906131d6565b6120d261245e565b6120da61245e565b610ab08282612485565b600054610100900460ff1661210b5760405162461bcd60e51b8152600401610937906131d6565b61211361245e565b61129d6124d3565b600054610100900460ff166121425760405162461bcd60e51b8152600401610937906131d6565b61129d612503565b60c980546001600160a01b038381166001600160a01b0319831681179093556040519116919082907f8be0079c531659141344cd1fd0a4f28419497f9722a3daafe3b4186f6b6457e090600090a35050565b6000611a61828461301c565b6000611a618284613221565b6000611a618284613256565b816001600160a01b0316836001600160a01b031614156122225760405162461bcd60e51b815260206004820152601960248201527f4552433732313a20617070726f766520746f2063616c6c6572000000000000006044820152606401610937565b6001600160a01b038381166000818152606a6020908152604080832094871680845294825291829020805460ff191686151590811790915591519182527f17307eab39ab6107e8899845ad3d59bd9653f200f220920489ca2b5937696c31910160405180910390a3505050565b61229a848484611ed2565b6122a684848484612531565b610dd65760405162461bcd60e51b81526004016109379061326a565b6060610139805461083f90612f1a565b6060816122f65750506040805180820190915260018152600360fc1b602082015290565b8160005b8115612320578061230a81612fb0565b91506123199050600a83613256565b91506122fa565b60008167ffffffffffffffff81111561233b5761233b612b5b565b6040519080825280601f01601f191660200182016040528015612365576020820181803683370190505b5090505b8415611eca5761237a6001836131bf565b9150612387600a866132bc565b61239290603061301c565b60f81b8183815181106123a7576123a7612f84565b60200101906001600160f81b031916908160001a9053506123c9600a86613256565b9450612369565b60006001600160e01b031982166380ac58cd60e01b148061240157506001600160e01b03198216635b5e139f60e01b145b8061082a57506301ffc9a760e01b6001600160e01b031983161461082a565b610a6d83838361262f565b61243583836126e7565b6124426000848484612531565b610a6d5760405162461bcd60e51b81526004016109379061326a565b600054610100900460ff1661129d5760405162461bcd60e51b8152600401610937906131d6565b600054610100900460ff166124ac5760405162461bcd60e51b8152600401610937906131d6565b81516124bf9060659060208501906129c5565b508051610a6d9060669060208401906129c5565b600054610100900460ff166124fa5760405162461bcd60e51b8152600401610937906131d6565b61129d3361214a565b600054610100900460ff1661252a5760405162461bcd60e51b8152600401610937906131d6565b600160fb55565b60006001600160a01b0384163b1561262457604051630a85bd0160e11b81526001600160a01b0385169063150b7a02906125759033908990889088906004016132d0565b6020604051808303816000875af19250505080156125b0575060408051601f3d908101601f191682019092526125ad9181019061330d565b60015b61260a573d8080156125de576040519150601f19603f3d011682016040523d82523d6000602084013e6125e3565b606091505b5080516126025760405162461bcd60e51b81526004016109379061326a565b805181602001fd5b6001600160e01b031916630a85bd0160e11b149050611eca565b506001949350505050565b6001600160a01b03831661268a5761268581609980546000838152609a60205260408120829055600182018355919091527f72a152ddfb8e864297c917af52ea6c1c68aead0fee1a62673fcc7e0c94979d000155565b6126ad565b816001600160a01b0316836001600160a01b0316146126ad576126ad8382612835565b6001600160a01b0382166126c457610a6d816128d2565b826001600160a01b0316826001600160a01b031614610a6d57610a6d8282612981565b6001600160a01b03821661273d5760405162461bcd60e51b815260206004820181905260248201527f4552433732313a206d696e7420746f20746865207a65726f20616464726573736044820152606401610937565b6000818152606760205260409020546001600160a01b0316156127a25760405162461bcd60e51b815260206004820152601c60248201527f4552433732313a20746f6b656e20616c7265616479206d696e746564000000006044820152606401610937565b6127ae60008383612420565b6001600160a01b03821660009081526068602052604081208054600192906127d790849061301c565b909155505060008181526067602052604080822080546001600160a01b0319166001600160a01b03861690811790915590518392907fddf252ad1be2c89b69c2b068fc378daa952ba7f163c4a11628f55a4df523b3ef908290a45050565b60006001612842846111e2565b61284c91906131bf565b60008381526098602052604090205490915080821461289f576001600160a01b03841660009081526097602090815260408083208584528252808320548484528184208190558352609890915290208190555b5060009182526098602090815260408084208490556001600160a01b039094168352609781528383209183525290812055565b6099546000906128e4906001906131bf565b6000838152609a60205260408120546099805493945090928490811061290c5761290c612f84565b90600052602060002001549050806099838154811061292d5761292d612f84565b6000918252602080832090910192909255828152609a909152604080822084905585825281205560998054806129655761296561332a565b6001900381819060005260206000200160009055905550505050565b600061298c836111e2565b6001600160a01b039093166000908152609760209081526040808320868452825280832085905593825260989052919091209190915550565b8280546129d190612f1a565b90600052602060002090601f0160209004810192826129f35760008555612a39565b82601f10612a0c57805160ff1916838001178555612a39565b82800160010185558215612a39579182015b82811115612a39578251825591602001919060010190612a1e565b50612a45929150612a49565b5090565b5b80821115612a455760008155600101612a4a565b6001600160e01b031981168114611d4557600080fd5b600060208284031215612a8657600080fd5b8135611a6181612a5e565b60005b83811015612aac578181015183820152602001612a94565b83811115610dd65750506000910152565b60008151808452612ad5816020860160208601612a91565b601f01601f19169290920160200192915050565b602081526000611a616020830184612abd565b600060208284031215612b0e57600080fd5b5035919050565b80356001600160a01b0381168114612b2c57600080fd5b919050565b60008060408385031215612b4457600080fd5b612b4d83612b15565b946020939093013593505050565b634e487b7160e01b600052604160045260246000fd5b600067ffffffffffffffff80841115612b8c57612b8c612b5b565b604051601f8501601f19908116603f01168101908282118183101715612bb457612bb4612b5b565b81604052809350858152868686011115612bcd57600080fd5b858560208301376000602087830101525050509392505050565b600082601f830112612bf857600080fd5b611a6183833560208501612b71565b600060208284031215612c1957600080fd5b813567ffffffffffffffff811115612c3057600080fd5b611eca84828501612be7565b600060208284031215612c4e57600080fd5b611a6182612b15565b6000602080830181845280855180835260408601915060408160051b870101925083870160005b82811015612cac57603f19888603018452612c9a858351612abd565b94509285019290850190600101612c7e565b5092979650505050505050565b600080600060608486031215612cce57600080fd5b612cd784612b15565b9250612ce560208501612b15565b9150604084013590509250925092565b60008060008060008060008060006101208a8c031215612d1457600080fd5b893567ffffffffffffffff80821115612d2c57600080fd5b612d388d838e01612be7565b9a5060208c0135915080821115612d4e57600080fd5b50612d5b8c828d01612be7565b98505060408a0135965060608a0135955060808a0135945060a08a0135935060c08a01359250612d8d60e08b01612b15565b91506101008a013590509295985092959850929598565b6020808252825182820181905260009190848201906040850190845b81811015612ddc57835183529284019291840191600101612dc0565b50909695505050505050565b60008060408385031215612dfb57600080fd5b612e0483612b15565b915060208301358015158114612e1957600080fd5b809150509250929050565b60008060008060808587031215612e3a57600080fd5b612e4385612b15565b9350612e5160208601612b15565b925060408501359150606085013567ffffffffffffffff811115612e7457600080fd5b8501601f81018713612e8557600080fd5b612e9487823560208401612b71565b91505092959194509250565b60008060408385031215612eb357600080fd5b612ebc83612b15565b9150612eca60208401612b15565b90509250929050565b60008060408385031215612ee657600080fd5b82359150602083013567ffffffffffffffff811115612f0457600080fd5b612f1085828601612be7565b9150509250929050565b600181811c90821680612f2e57607f821691505b60208210811415610c2d57634e487b7160e01b600052602260045260246000fd5b6020808252818101527f4f776e61626c653a2063616c6c6572206973206e6f7420746865206f776e6572604082015260600190565b634e487b7160e01b600052603260045260246000fd5b634e487b7160e01b600052601160045260246000fd5b6000600019821415612fc457612fc4612f9a565b5060010190565b60208082526031908201527f4552433732313a207472616e736665722063616c6c6572206973206e6f74206f6040820152701ddb995c881b9bdc88185c1c1c9bdd9959607a1b606082015260800190565b6000821982111561302f5761302f612f9a565b500190565b600060208083526000845461304881612f1a565b80848701526040600180841660008114613069576001811461307d576130ab565b60ff198516898401526060890195506130ab565b896000528660002060005b858110156130a35781548b8201860152908301908801613088565b8a0184019650505b509398975050505050505050565b600083516130cb818460208801612a91565b8351908301906130df818360208801612a91565b01949350505050565b60008083546130f681612f1a565b6001828116801561310e576001811461311f5761314e565b60ff1984168752828701945061314e565b8760005260208060002060005b858110156131455781548a82015290840190820161312c565b50505082870194505b50929695505050505050565b60006020828403121561316c57600080fd5b5051919050565b60008251613185818460208701612a91565b9190910192915050565b60018060a01b03841681528260208201526060604082015260006131b66060830184612abd565b95945050505050565b6000828210156131d1576131d1612f9a565b500390565b6020808252602b908201527f496e697469616c697a61626c653a20636f6e7472616374206973206e6f74206960408201526a6e697469616c697a696e6760a81b606082015260800190565b600081600019048311821515161561323b5761323b612f9a565b500290565b634e487b7160e01b600052601260045260246000fd5b60008261326557613265613240565b500490565b60208082526032908201527f4552433732313a207472616e7366657220746f206e6f6e20455243373231526560408201527131b2b4bb32b91034b6b83632b6b2b73a32b960711b606082015260800190565b6000826132cb576132cb613240565b500690565b6001600160a01b038581168252841660208201526040810183905260806060820181905260009061330390830184612abd565b9695505050505050565b60006020828403121561331f57600080fd5b8151611a6181612a5e565b634e487b7160e01b600052603160045260246000fdfea2646970667358221220c60d2b04ee90b83a6f09d38502a8d65a3d42e054b8ac4762bc58a7f6bfcfd9a164736f6c634300080a0033a2646970667358221220a5967c8ebdb85f458d1139136dfc3927bc29d6859d5c2048eb79e340c8c59b3c64736f6c634300080a0033",
  "linkReferences": {},
  "deployedLinkReferences": {}
}